{
  "_format": "hh-sol-artifact-1",
  "contractName": "Whitelist",
  "sourceName": "contracts/Whitelist.sol",
  "abi": [
    {
      "inputs": [
        {
          "internalType": "bytes32",
          "name": "_merkleRoot",
          "type": "bytes32"
        }
      ],
      "stateMutability": "nonpayable",
      "type": "constructor"
    },
    {
      "inputs": [
        {
          "internalType": "bytes32[]",
          "name": "proof",
          "type": "bytes32[]"
        },
        {
          "internalType": "uint64",
          "name": "maxAllowanceToMint",
          "type": "uint64"
        }
      ],
      "name": "checkInWhitelist",
      "outputs": [
        {
          "internalType": "bool",
          "name": "",
          "type": "bool"
        }
      ],
      "stateMutability": "view",
      "type": "function"
    },
    {
      "inputs": [],
      "name": "merkleRoot",
      "outputs": [
        {
          "internalType": "bytes32",
          "name": "",
          "type": "bytes32"
        }
      ],
      "stateMutability": "view",
      "type": "function"
    }
  ],
  "bytecode": "0x608060405234801561001057600080fd5b5060405161050e38038061050e83398181016040528101906100329190610054565b806000819055505061009e565b60008151905061004e81610087565b92915050565b60006020828403121561006657600080fd5b60006100748482850161003f565b91505092915050565b6000819050919050565b6100908161007d565b811461009b57600080fd5b50565b610461806100ad6000396000f3fe608060405234801561001057600080fd5b50600436106100365760003560e01c80632eb4a7ab1461003b578063e10d3be214610059575b600080fd5b610043610089565b604051610050919061031b565b60405180910390f35b610073600480360381019061006e9190610243565b61008f565b6040516100809190610300565b60405180910390f35b60005481565b60008033836040516020016100a59291906102d7565b604051602081830303815290604052805190602001209050600061010d868680806020026020016040519081016040528093929190818152602001838360200280828437600081840152601f19601f820116905080830192505050505050506000548461011b565b905080925050509392505050565b6000826101288584610132565b1490509392505050565b60008082905060005b84518110156101c257600085828151811061017f577f4e487b7100000000000000000000000000000000000000000000000000000000600052603260045260246000fd5b602002602001015190508083116101a15761019a83826101cd565b92506101ae565b6101ab81846101cd565b92505b5080806101ba9061039c565b91505061013b565b508091505092915050565b600082600052816020526040600020905092915050565b60008083601f8401126101f657600080fd5b8235905067ffffffffffffffff81111561020f57600080fd5b60208301915083602082028301111561022757600080fd5b9250929050565b60008135905061023d81610414565b92915050565b60008060006040848603121561025857600080fd5b600084013567ffffffffffffffff81111561027257600080fd5b61027e868287016101e4565b935093505060206102918682870161022e565b9150509250925092565b6102a481610336565b82525050565b6102b381610348565b82525050565b6102c281610354565b82525050565b6102d181610388565b82525050565b60006040820190506102ec600083018561029b565b6102f960208301846102c8565b9392505050565b600060208201905061031560008301846102aa565b92915050565b600060208201905061033060008301846102b9565b92915050565b60006103418261035e565b9050919050565b60008115159050919050565b6000819050919050565b600073ffffffffffffffffffffffffffffffffffffffff82169050919050565b6000819050919050565b600067ffffffffffffffff82169050919050565b60006103a78261037e565b91507fffffffffffffffffffffffffffffffffffffffffffffffffffffffffffffffff8214156103da576103d96103e5565b5b600182019050919050565b7f4e487b7100000000000000000000000000000000000000000000000000000000600052601160045260246000fd5b61041d81610388565b811461042857600080fd5b5056fea264697066735822122034b9e09d45a7e6fabe0cf78d1ada2b47d24bcbc8e4ffe356d0ecf513303a294f64736f6c63430008040033",
  "linkReferences": {},
  "deployedLinkReferences": {}
}